:1000000000308A0019280000213084008313000882
:10001000031918280130F800F701F70B0D28F80B29
:100020000C284A30F700F70B13281628800B0A28F3
:100030000800840183131F3083050530A000831658
:100040001F149F141F159F1109128312900183160C
:100050001F149F141F159F1183121F100330831646
:10006000850000308700831207110C30970087103D
:100070009D000030F80005389200F9308316920098
:1000800083122008950020089B00051C5828143076
:10009000A100042005184A280330A0072008A93C25
:1000A00003185428AA30A0002008950020089B00BF
:1000B000851C6B281430A100042085185D280330AE
:1000C000A0022008043C031C67280530A00020087B
:0A00D000950020089B0045286300FE
:02400E00393F38
:00000001FF
;PIC16F877
;CRC=130A  CREATED="02-Oca-21 15:01"
